:1000000043C95DC95CC999C95AC959C958C957C9B1
:10001000A1CC55C954C953C952C951C950C90000CE
:1000200000000101010202030405050607090A0B8D
:100030000C0E0F1112141517191B1D1F2123252833
:100040002A2C2F313436393B3E414346494C4F52DE
:1000500055585A5D6164676A6D707376797C8083E8
:1000600086898C8F9295989B9EA2A5A7AAADB0B3C6
:10007000B6B9BCBEC1C4C6C9CBCED0D3D5D7DADCE5
:10008000DEE0E2E4E6E8EAEBEDEEF0F1F3F4F5F6BB
:10009000F8F9FAFAFBFCFDFDFEFEFEFFFFFFDCE6D1
:1000A000550BE0FC05F4FD08FD0405FA05FD00060E
:1000B000F6FBFE060804F5FBFEFE010803FC04F750
:1000C000FF03FDFEFF0400FEFFFF01FFFC00000236
:1000D00000FF00FDFF0101FFFFFDFCFF0203030025
:1000E000FEFAFBFE020304FE00FD02FF01FF01FE1B
:1000F00000FEFFFEFE3CC1BB0C10422E0FE4D7EE0B
:100100001303EA0B14EEFD17FCECFAF1FA0AF810EF
:10011000110105F5F3010D07F8F5FCFE00040302DB
:10012000FE00FCF7F904060300F80303FE03FEFDDE
:1001300002000200FEFAF8FEFF000301FCFBFEFED7
:1001400005050200FEF9F8000705FEF6F6FE0609B1
:100150000605FBFAF007D1D54D40FBCAF510E90CB6
:100160001FF0F9100CFAD1DD0F1D1B180DF3E4EB95
:10017000F70B101506F7E7F50A0806FEFEFA090464
:10018000F4F6FF0202030605FDFAF0FC070C07F87F
:10019000F1F306030C01FEFCFE0201FBFBF9F2FA8F
:1001A000040D0A0CFC00EE05BFE3351B09230BD63A
:1001B00008FF10E3DCEF211C0A08ECFF070DF0F448
:1001C000FE0D1010D9CCFB182E1800E8F112F8F330
:1001D000EF010507100B06F6F4E5FC1417FDF6F722
:1001E00007F4E5FB1E1500EBE805FE230DE1F40E18
:1001F000EFE70F15FD000B0701E4EC19FBFF04000E
:1002000005FA10FFF6F302F904FBE400140617FFE9
:10021000D9EEFA121A0EFA0AF8F5FDE4F3111B10E2
:10022000F9E9E91119F903FEF3FEF70403ECF815F7
:10023000150D00F703F1F1EAFD08192002E7DAEBEA
:10024000FE090A110C12FEF6F50302F3F907F4E9B0
:100250001606030E04F8E4F30609090AF3F006068D
:10026000131208F9F5E5E40110130F0DFDE4D9F5BB
:100270000F131510F8F4F1FCF8EFFC10120E07FF45
:10028000EFE706FD110A01FCF9F5FA0AF4FF0C0D7F
:100290000704E8E50204040E0CFCECF3071307F472
:1002A000F000FF040F080FFFF3F601FD02FAFAFD5C
:1002B00002100905EDEDFD0AFAFC0501090D08F330
:1002C000E9EBFF0C090801090CFCFAF0F4010A0F34
:1002D00003F9F2E8F7130902040601ECEE02110A31
:1002E000FEFBFC0B070A05F5FAFB04FBF7040C0701
:1002F0000005F7EAEEEFF6071216130BF7F3F6F721
:10030000FC01010405FD01F8040BFEFBFDFAF2F708
:10031000070A090900FF01FAF4020F0DFDF5F1F0DB
:10032000FF0F0E0D0BF7E6E1FA0F100801FCF705C1
:1003300006FBFBF7F4FD030C161607FBEEEFFAFCC9
:10034000050809FDFEFBF6F5FA06090A0400FAF6AF
:10035000FB0303FFF7F1F80710140CFEF1ECF800B3
:10036000030C0400FFF8FD0706FA050700FAF8FB86
:10037000000803F8F2F2F4F800090E141507F8F675
:10038000F3FB0701000603FFF9F9FB05080405FC70
:10039000F1EEFB060B0CFCF3FF05000102FC02076B
:1003A0000602FDFBFCF8FC040704FBFDFD01060151
:1003B000FE00FBFD00FE03FCFC0302070602FBFF40
:1003C000FDF4EEEEFB0C111109F4F1FB0407080734
:1003D00001F7FE0202040100FDF8F6FAFC050D0823
:1003E000FFFDF6FB02FDFFFF010706FDFBFD02031B
:1003F000020301FDF8FAFFFFFBFB02090D08FEF7FF
:10040000F5F6F9F9FE080F0F07FEF7F6FD00FFFEFF
:10041000010301FEFCFEFE020300FDFC020503FEDB
:10042000FAFD0202010202FFFDFBFAFE00FFFAFBE9
:1004300002060705FFF9F8FD0102030201000000B2
:1004400000FFFDFE0000010000FFFEFDFEFF0100B9
:100450000000FFFFFF00FFFFFF000000FFFFFFFFA6
:10046000FFFF000000FF01FC06E5C1D6C5CBC2CCF2
:10047000B8D9F6CC3CBA9A544F321D3C383E62553E
:10048000773C1737FA27302F5A0A021EFCE1234522
:100490001405DC1BF4B8F5C6B8DDCFA4ECD79DABD2
:1004A000DCCE8A97969683858D8C939FADC4C8D7F2
:1004B000DEE9EEEBDFD3EC05261C1A202E303741A7
:1004C000434E55565256535C646A6E726B6D737B25
:1004D00071707373685C6B433D36110E1106FDF548
:1004E000EAE9D1CCD5C6B9C9C4B0AAAAB2AEA6B4FD
:1004F000BAA7A5A3A6A5A49DA2ACA0ACABAFB2AB76
:10050000B4C0D0D0D3EAEEF2020F1516182D3B3C42
:100510003B3E4042403F513E5B4B3A311233293A19
:100520003D2D3E212D3830332B1F2E32153500192D
:1005300026182D06F1E512F3F9EDEEFCE4E7C1C44F
:10054000D0D7C9C4C6C0C1BEB3B2B2B1B2C5DCD681
:10055000E5C6C0C8D8EAEBF7ECEAE2E9020A0EFF0A
:1005600006231B26121412101D1B211A1F2B2024D8
:1005700032212D2C373039403331282E2F25291B9D
:10058000253E152C3A22220D160EF7FEF9ECE0EE70
:10059000F4DBC9D8D5BFC1CEC2AEB3B6BBC0C9D2D9
:1005A000C6C8D9C8CDD7DCDDF0FFFAFEF7F6F1F406
:1005B000010F0B0A242E282F221B12223112121790
:1005C00018252116202725322D241326381E2B17F7
:1005D000120B031202F9151812131111EFF9F90990
:1005E00001E6FBFBE0DEE5E8E3D2E3EBF7ECE6E077
:1005F000EBE4CDE7E2CCCADDDBD7E0E6F901EBF6D0
:10060000EAE9F2F208F7F506F80013020909040D09
:1006100010140907171019160615110F13151E22AD
:100620002E31192627283024221F202219131C2599
:100630001C130A0D10FFFFF4E3E5DEDBE4DCD5CC90
:10064000CAD5D9E3EBEDEDE5E8E7E8F0E1DEE7EF69
:10065000E6E6EBE4E4ECEEF7FBEAFC02FAFC070268
:10066000030F1426241E1F27241A1A281E1B2919BB
:100670001001101B171B0E0B0E03FF06051D1602A3
:10068000F40E02FB0EFF200B0B01FCF6DEF7FEFA68
:10069000E8EFEDE0E0D0CFD8DDF0EDE2ECF1EDF702
:1006A000EDDDECF9F3FFFCFA12040B0500160D0D5D
:1006B00011FE0204F90704FFF904100A0B090E05E4
:1006C000030B0809FFFC090203FDFB1909060C01D5
:1006D00002FCFCFF0F05030500FFFEFBFB0AFB010C
:1006E000FCFBFBF2FAECE7EAF7F1E6F103FBF403BB
:1006F00002000F0F121907100C010906070205FB73
:10070000FF050605F3F7FA05FDF6FBFFFCF4F8FE1E
:10071000FEF7F4F6F6FDF8FE07FB0C01F2F8F9F629
:10072000FBFC0004F2E6E8E7ECF5F4F8080BFE0544
:100730000412040B19060E050919100D0808110DF5
:1007400011140E0E0A0A11FD010600FFFCF4ECFA6A
:1007500000FEF4F8F7F1FF0408FFFCF4F0FDFDF8EB
:10076000F6F6F0E7E601FBFAF6F50DFFFE04FAF403
:10077000FA0E0C0809F8F9FF05FA000603FBFC0560
:10078000FE0AFBFA04F8020205080C0BF6F5F30169
:10079000FFFAFFFBFFF4F4F0FB01F8FEF7F60400AC
:1007A0000001000503050509050DFD040BFC0A0405
:1007B000050D0B11160C0FFEFE1103031008070B9D
:1007C000060506000102FBFDF50101F8E6F2EDE782
:1007D00002EFF3EDE8F9F6EFF5EFF4FCF2FCF7F5D4
:1007E000ECED0007000101F5F7FF06FBF80000FF44
:1007F000000D0C01180E04140A13161D1A040E1213
:100800000B0A1316030BFD06030205010D030BFC77
:10081000FAF207FEFC00EEF0F1FBF5F4ECF6F1ED78
:10082000E9EAEAE5E9ECF7F7F804FCF2F8F4F8F69F
:10083000FFF7FA050808F5F60D02050B030E080F81
:10084000130C0F120C1A10141C130D1018100D0895
:100850000C030A0D0800FE01F0F4FFF6FEF6F6F8B0
:10086000E801FAECF1F5F3F3EBEBEEF1F1E2EBF684
:10087000EBEAF6F2F9F3F8FAFB02FBFA0104FF0BDC
:1008800006090408070B0F030A020202060E0A0AF1
:100890000E0E0A0B0F0A0E100F0B0D0C08FDFA06B8
:1008A00008020A06FC04FE01FAF9F900FCFA02F952
:1008B000FFFEF6F5F5F901FD02FDFF04000702FF5A
:1008C000FEF2F5F5FAF6EEF9F1ECE7E9ECEEEAEE18
:1008D000F1F8F8F0FDF3F6FDF9040A02FF07080746
:1008E00009FFFC0B060B08000E1009020807060B97
:1008F0000800090C111713180F17110C120F1317FA
:100900000A0C080103FE08F7FA05F8FAF7FEFAF8F0
:10091000F7EEEFEDF8F2F7FEF6FBE8E9F0E9F8F4B0
:10092000F2ECE7F2EDEDF8F2FDF8F108FCFFFDF86E
:10093000FA01020200FE06FF060A0B0608070B0C6E
:10094000090A06050A0903080103050402060F0B3C
:100950000C0C0A0B0D100E080B0B08060E02020100
:10096000FA00F7FBF9F7F8F3F4F8EFF3F0F0F1EC35
:10097000F5F4EFF0F4F5EFF4FFF6F3FCFD000500FD
:1009800002FF0501FF03010602060A080B06FC0729
:10099000070801030806080301040609070508FE05
:1009A0000906070A0301FEFD00000303FF00FDFF27
:1009B000F9F9F2F8F6F2F4F3F6F5F3F0F3F9F7F2E9
:1009C000FB02090500FD02050001070903090703F1
:1009D00002020400060B00060703090402FCFF01E3
:1009E00000FFFFFF0104040402FEFDFF01FFF9FF09
:1009F000FCFAF9FBFAFCF9F7FBFAFDF9FFFDFEFD45
:100A0000FB0102FE020100030201FE02FF01FDFEE6
:100A1000FEFE0603030100010103010101020301BF
:100A2000FEFFFE010001050101FE0301FDFD0201C3
:100A300001FD01FFFA00FAFBFCFCFDFBF7FAF8FBF5
:100A400001FCFFFEFE010100040602020404010590
:100A5000020201030700FD00030001000101FF0283
:100A600003FCFAF9F8FCFCFEFDFEFF00000306FFA4
:100A70000102FF00FEFDFFFE0101FCFFFFFDFCFE89
:100A80000102FF0200FB00FBFEFEFC02010103FF6E
:100A900002020001FE020102FEFD00FEFFFF010056
:100AA000FF020105000003FFFFFEFEFFFDFFFFFC4C
:100AB000FCFBFCFE00FFFDFEFEFFFFFD0000FEFF55
:100AC000FEFF0000FF0103FF0204010203FFFEFE20
:100AD0000101FF02FF0001FE01010204FEFF02FF0F
:100AE0000100000100FF000202010101000101FFFD
:100AF000FFFEFDFDFEFFFDFEFE00FEFEFFFFFDFE14
:100B0000FCFFFEFDFCFAFEFDFCFDFFFF0100000006
:100B100000FFFD000001FFFE0001010302020202CE
:100B20000405030302020100FF00010101FFFFFFB2
:100B300000FFFFFEFEFEFDFFFFFEFDFEFF00FFFFCC
:100B40000000010000FF0000FFFFFF00FEFFFEFEAF
:100B5000FFFDFEFF00FFFFFEFEFFFD0000FF0000A7
:100B6000FF0000FF000102000000FF00FEFEFEFF8C
:100B700000FF010000000001020000FF0001FFFF74
:100B8000FEFFFFFFFEFEFDFEFEFDFDFCFEFEFEFD88
:100B9000FDFDFFFF00000000000000020101010157
:100BA0000102020201020302020201000000010030
:100BB00000FFFF0000FEFF00FEFF00FFFFFFFEFE44
:100BC000FEFEFEFEFEFEFFFFFFFFFFFEFFFFFFFE3D
:100BD000FEFEFEFFFFFEFEFFFFFFFF000000FF0026
:100BE00000000000010101010001010101010101FA
:100BF000010100000000000000000000FFFFFFFFF7
:100C0000FFFFFFFFFFFFFFFFFFFFFFFFFFFFFFFFF4
:100C1000FFFFFFFFFFFFFFFFFFFFFFFFFFFFFF00E3
:100C200000FFFF00000000000000000000000000C6
:100C3000FE0D2828272A2C2E2F313B48494D525390
:100C4000535558565654565457565551474C4C3C8C
:100C50003F5A53484F5140262F50553917313DFFC9
:100C6000FA000402F0E8E9F2DFD4E3DFCBCAD1CD29
:100C7000C2CACAC1C3BBBABAB3B3B3AAABB2A9A5FD
:100C8000A7A59D9AA19F9B979A9B918C94908C8EDF
:100C9000888A848684808588838181808484848412
:100CA00085858787878887898D8E8D8E8F9192988D
:100CB000A6ACA7AAB7B9BBBFCEDDDADDE8EAEEFC89
:100CC00001090F11151B2025292C3234373C3E41D8
:100CD0004346484B505254575B5D5D5F61646668A4
:100CE000696C6E6F71747373757777777A7A7B79C5
:100CF0007A7C7B7A797B7B7A797979777675767766
:100D0000747474737171706E6E6D6B676564605E20
:100D100059544E4A4A413B3B372F312C25241F1F43
:100D20001D1B17110A0B0802FFFAFBF4EBEBE7E2BD
:100D3000DFDDD8D5D4D1CDCCCBC8C7C5C4C3C0C2E4
:100D4000C1BFBFBEBDBCBBBBBBB9B7B8B8B5B5B4FE
:100D5000B4B3B2B3B2B1B0B1B1B0AFAFB1AFAFAF86
:100D6000AFB0B0AFAFB0AFAFB0AFB0B0AFAFAFAE8E
:100D7000AFAFB0AFAFAFAFB2B0B0B1B1B3B3B2B16C
:100D8000B2B2B1B3B6B6B7B7B9BDBCBBB9BBBDBBE8
:100D9000BDBEBCBDBEC0C2C1C2C6C8CCCCCCD2D206
:100DA000D0D3D2D1D3D4D9D8DCDDDBE2E5E7E9EF8B
:100DB000F1F1F3F4F7FDFEFE030606080B0C101428
:100DC0001519191A1C202021222528282B2A2D2EFE
:100DD0002E30313433333636373638393939383CBA
:100DE0003D404041424242424444424546454543DB
:100DF00044464545434746454444454343444342AE
:100E0000424242434240403D3E3D3B383836343416
:100E100032302E2C2B29252423201D1D1D1B191794
:100E2000151211100F0D0C0B0A090605040303011E
:100E3000FDFDFBF9F8F7F6F4F3F2F1F1F0F0EFED68
:100E4000ECEDEDECEBE9EBEBE9E9E8E8E9E5E5E50C
:100E5000E4E4E2E2E2E1E0E0DFDFE0DEDEDEDCDB94
:100E6000DDDEDFDFDEDFDEDEDDDEDFDFE0E0E1E096
:100E7000E2E2E2E3E1E1E1E0DFDFDFE0DFDFDFE26A
:100E8000E2E1E1E0E2E1E0E1E2E0E1E1E1E2E2E44D
:100E9000E3E5E7E7E7E7E8E9EAEAEBEBEDF0F0F0B6
:100EA000F1F1F3F4F5F7F8F7F9F9F8FAFAFBFBFCCE
:100EB000FEFFFE0001020204050507080A0B0C0EE6
:100EC0000F0E0F0F1010101313121213141415130A
:100ED00013141413131413131314141314141414D9
:100EE0001413121111111111111011110F101110F1
:100EF0000F0F0F0F0F0E0D0D0D0D0C0B0C0B0B0A22
:100F00000A0B0A090908070807070606050505046C
:100F1000040303030202010001FFFF0000FF00FFC2
:100F2000FEFFFEFEFEFDFDFEFDFDFDFDFDFDFDFDEA
:100F3000FEFEFEFEFEFFFFFEFEFEFFFFFEFEFFFFCB
:100F4000FF00FF000000000101010100000100009E
:100F500000010101000000FFFFFFFFFFFFFFFEFE99
:100F6000FEFEFDFEFDFDFDFCFDFCFBFCFBFBFBFABC
:100F7000FBFBFAFAFAF9F8F7F8F8F9F7F7F8F8F6E8
:100F8000F7F7F7F6F6F7F7F7F7F8F8F8F8F8F8F8EC
:100F9000F9F9F9F9FAF9FAFAFBFAFBFBFBFCFCFCAC
:100FA000FBFBFCFCFCFCFDFDFDFDFDFDFDFEFEFE76
:100FB000FFFFFFFF0000FF00000001000001010231
:100FC00002020202020203030303030303030304F6
:100FD00004040303030303040404030303030303DC
:100FE000040302020101000001010100000000FFF2
:100FF000FFFFFFFFFF0004FFF112FCFA0FF706F0FE
:101000000300FF00FD1000FCEE0DF9FB04030A02D3
:101010000FF92107F612E502FD10FBE1FBEF08EAEC
:10102000FAF8F509F701F7F6FD061B06FFF3E906E6
:10103000F410051809080EF705EC0AE7FBF404F5AF
:10104000EF08F70BEE17F70E00090B0410EA0DF985
:101050000CF604E6EE03F90EEF03FF12FB0B0E0095
:1010600007F108F9FBFBFEF9EEFDFC04FCFE0B0C9E
:10107000040103F8F3FE0207000B0601FDFF09015E
:10108000FFFAFFFD0BF4FEF6FC020404FD0CFA046B
:10109000E90408FC07FAFEFFFCF5F6F606FBFB0385
:1010A000FF0309FF0200000CFD04FDFEFA0C000224
:1010B0000FFF06F706FCFFFDF0FFFCFCFEF9F90848
:1010C00004010802FB00F801050600F501F4000820
:1010D000FAFDFDF9FF03FB05FC0410F90804010704
:1010E000FAF4F9070101FD00010201F7FB07FDFA1F
:1010F000FDF904FE0807000B01FBFDF5F705FDFDFA
:10110000FCFD05020AFAFD08F9F8FE03FF050201DD
:1011100003020801FDFEF9FD01FDFF0201FAFC00DA
:10112000FB010101010202F90106FEFD0702FFF7C2
:10113000FA03FE01FFFFF90109FFFD0306FB04FDB1
:10114000FF03F3FD0205FB02F80301FC02FA08F7B6
:101150000105FBF9FF04FFFD0400FDFFFF04FFFF95
:1011600003040101F90406FEFCFC0002FEFD03F984
:1011700002FEFFFE0200FBFAF903FE05FA0402FE7E
:1011800007FFFE0100FB02FD03000204FB01020356
:10119000FD03FDFE03FCFFFE01FCFAFF04FDFDFE66
:1011A000FB01FD06FE00020100FE01F705FB040441
:1011B000FE06FF00FC0402FFFF01FDFEFFF901FF38
:1011C000FA01FDFD02FB03FEFD03FFFE010100002D
:1011D0000002FE010500FE03FE00FE00FFF900FF15
:1011E000FFFB02000200FE01FD00FEFCFF0301FF09
:1011F000FDFEFFFF01FE010302020000FE03FBFDF6
:1012000002FFFDFD0501FFFF000100FDFE0001FFE3
:101210000002FEFFFE03FDFE01FEFFFF0301FEFED6
:10122000FFFFFF00FF000100000403FEFFFE0000BF
:1012300000FEFB00000001FDFEFFFEFD00FEFE01C2
:10124000FE000001FF000102FEFF0000020101FF9D
:1012500002FF00FF01FE00FFFD01FE00FEFF000097
:10126000FFFF0000FFFF000000000102000004007B
:101270000102040810200202020202020000000023
:10128000380000000000370011241FBECFE5D2E077
:10129000DEBFCDBF10E0A0E6B0E0EAE0FDE102C0B5
:1012A00005900D92AA37B107D9F721E0AAE7B0E07F
:1012B00001C01D92A73AB207E1F759D424C5A0C6D0
:1012C00087B5826087BD87EC90E00197F1F700C099
:1012D000000007B400FEFDCF87B5846087BD87B5E9
:1012E000806887BDF89483EA8ABD81E083BF10BE21
:1012F0001FBC82E08CBD8FEF8EBD8DBD80E489BFA9
:1013000084E880BF78940895EEE1F0E0ACE9B0E0C5
:1013100084918D93319680E0EE39F807C9F78FEF0D
:1013200080931C01ECE1F1E0ADE1B1E082918D939D
:1013300080E0ED39F807D1F708951F920F920FB6AC
:101340000F9211242F933F934F935F936F937F934B
:101350008F939F93AF93BF93EF93FF9380919600EA
:1013600089BD8091910088BDE091830080919200B9
:10137000909193002091940030919500A091840069
:1013800040918B0050918C0060918F007091900083
:10139000EE23D9F0B0919900EB2FF0E0280F391F20
:1013A0002E0F3F1F30939500209394009B2F9A0F90
:1013B000980F90938400CA01860F971F8E0F9F1F6E
:1013C0009093900080938F000FC0280F391F3093A7
:1013D0009500209394008A0F80938400460F571F36
:1013E0005093900040938F00E0919400F09195000D
:1013F000CF0183709927892B71F420918D00309152
:101400008E008091890090918A00280F391F3093B7
:101410008E0020938D008091A601811121C08091C2
:10142000A3012091900030E0D901A456BF4F6C91E8
:1014300070E090E057D48E0F9F1F36E09695879509
:101440003A95E1F780938600FC01FF27E456FF4FB1
:1014500080816091990070E090E044D49093960070
:10146000FF91EF91BF91AF919F918F917F916F917C
:101470005F914F913F912F910F900FBE0F901F9052
:1014800018959C01220F232F221F330B3195209397
:10149000A601273030F023B72E7F23BF23B7226069
:1014A00005C023B7216023BF23B72D7F23BF9C0135
:1014B00044E0220F331F4A95E1F72F5F3F4F3093EF
:1014C0008C0020938B0020E032E0281B390B3093F6
:1014D0008A002093890008952091A601213039F4D3
:1014E000880F991F880F991F8F51934007C0243090
:1014F00020F4880F991F880F991F019690939300ED
:101500008093920080919200909193009093880034
:1015100080938700089540919B00442329F0809197
:101520009900809391004CC02091840030E0359563
:101530002795359527958091A40190E054E0880F78
:10154000991F5A95E1F72817390714F01092840073
:10155000209191002093810080918400E09173009C
:10156000F0917400E80FF11DE491E058F0E0DF0124
:1015700085E0B595A7958A95E1F730918E00832F88
:10158000869590E0A456BF4FA80FB91F9091A50172
:101590008C91891718F42093820009C0E21BF1098D
:1015A000F7FF03C0F195E195F109E0938200809186
:1015B00082006091970070E090E094D39093910046
:1015C0008091A601882309F452C08130A1F52091B1
:1015D0009400309195003695279536952795809102
:1015E000A30190E08456910975E0880F991F7A95C0
:1015F000E1F72817390720F0109295001092940017
:1016000080919400909195009695879596958795F1
:10161000E0917300F0917400E80FF91F849120911C
:10162000900030E0F901E456FF4F608170E090E0F7
:1016300059D3892F99C0823019F52091900030E05C
:101640008091A30190E005962817390780F48091D6
:10165000950090E080938600FC01E456FF4F808166
:101660006091990070E090E03DD390939600442300
:1016700009F483C080918600805C80938500089582
:101680008330C9F4809194009091950088339E41F5
:1016900020F0109295001092940080919400909107
:1016A000950043E0969587954A95E1F7E0917100A2
:1016B000F091720055C08430C9F4809194009091EB
:1016C000950088359E4320F010929500109294006A
:1016D000809194009091950033E0969587953A9586
:1016E000E1F7E0916F00F09170001CC0853001F1CE
:1016F0008630E1F48091940090919500803B934175
:1017000020F0109295001092940080919400909196
:10171000950023E0969587952A95E1F7E09173006F
:10172000F0917400E80FF91F84911EC0873029F5ED
:10173000809194009091950080349E4120F0109209
:101740009500109294008091940090919500B3E0E0
:1017500096958795BA95E1F7E0916D00F0916E004E
:10176000E80FF91F84918058809398006091990048
:1017700070E090E0B7D290939600089590E0861BB9
:10178000910997FF03C0919581959109019739F4CB
:1017900080E8809399008FEF8093970008958FEFF2
:1017A0008093990086E98093970008956091800066
:1017B00060937F008091A201863918F41092800016
:1017C00007C0833A10F082E001C081E0809380007E
:1017D00080918000681729F0D1DF10929500109257
:1017E000940008958091A301282F30E0853678F089
:1017F000293731051CF02857310902C021E030E0BB
:1018000030936B0020936A0010928300089584E661
:1018100090E0821B930B90936B0080936A008FEF94
:1018200080938300089520916A0030916B00211508
:101830003105D9F180917C0090917D0006969093BE
:101840007D0080937C008217930788F010927D00C2
:1018500010927C0090919900992349F08FEF890FA5
:101860009295969596959370891B80939900809197
:101870007A0090917B00069690937B0080937A008B
:101880008217930790F010927B0010927A0090914B
:101890009700992351F08FEF890F92959695969521
:1018A0009370891B809397000895089534DEBBDF01
:1018B0007DCF17B8379A329A319A309A339A8FB7C8
:1018C00080688FBF089597B1907797B997B1982B9B
:1018D00097B90895369A089517DD61E085E0BAD189
:1018E00061E080E06DD161E081E06AD1E9DCE1DFB7
:1018F00080916C00E8DFEEDF87EC90E00197F1F774
:1019000000C0000080919A008C3010F4CFDFFACF35
:1019100081E080939B008091A201823A10F41092A2
:101920009B0080919B009091A301983C08F480E07B
:101930009091A401983C08F480E09091A501983C16
:1019400008F480E080939B00089584B125B190E075
:10195000922B08951F920F920FB60F9211242F937E
:101960003F934F935F936F937F938F939F93AF9327
:10197000BF93CF93DF93EF93FF9380919A008F5F94
:1019800080939A0080919C01811193C0C0916C005A
:10199000D0E0FE01E256FE4FCE55DE4F88818083B7
:1019A000D4DF9695879596958795888380916C006E
:1019B00080939D01811101C0F9DE80917E008F5FCF
:1019C000863018F480937E0002C010927E00E09171
:1019D0007E00F0E0EC59FF4F808180936C0073DF54
:1019E00080919D01833051F58091A5019091A101D5
:1019F000981721F190E0880F991F880F991F6CDDCF
:101A00002091970030E08091A10190E04091A501E4
:101A1000841B910997FF03C0919581959109E3E09B
:101A2000880F991FEA95E1F7820F931F8F3F910569
:101A300019F014F08FEF90E08093970080919D0152
:101A4000823049F58091A4019091A001981719F175
:101A500090E0880F991F880F991F13DD209199003E
:101A600030E08091A00190E04091A401841B910995
:101A700097FF03C0919581959109880F991F880F51
:101A8000991F820F931F8F3F910519F014F08FEF6C
:101A900090E08093990080919D01813031F4909184
:101AA0009F018091A30198139DDE81E080939C01AA
:101AB0004AC08091A601813009F443C080916C0036
:101AC00090E0FC01EE55FE4F2081283C90F427B3B6
:101AD000FC01EB58FF4F81E090E0A0E0B0E0008017
:101AE00004C0880F991FAA1FBB1F0A94D2F7282B86
:101AF00027BB27B3E0916C00F0E0EB58FF4F81E08B
:101B000090E0A0E0B0E0AC01BD01008004C0440F53
:101B1000551F661F771F0A94D2F74095422347BB93
:101B200028B3E0916C00F0E0EB58FF4F008004C058
:101B3000880F991FAA1FBB1F0A94D2F78095822392
:101B400088BB10929C01C6DEFF91EF91DF91CF918F
:101B5000BF91AF919F918F917F916F915F914F91C5
:101B60003F912F910F900FBE0F901F90189581B746
:101B700081BF9FDEB1DE9ADEFECF813031F48AB5BF
:101B80008F778ABD8AB58F7B07C0823039F48AB5DA
:101B90008F7D8ABD8AB58F7E8ABD0895833039F4E2
:101BA00080B78F7D80BF80B78F7E80BF08958430DF
:101BB00031F48CB58F7D8CBD8CB58F7E8CBD089536
:101BC000CF93DF9387FF0FC08F7741F0813041F0D3
:101BD000823041F0833039F08FEF05C085E003C0DB
:101BE00082E001C084E090E0FC01E059FD4E2491C8
:101BF000FC01EA58FD4E8491882349F190E0880F5A
:101C0000991FFC01EE57FD4EA591B49184589D4E4D
:101C1000FC01C591D4919FB7611108C0F8948C91D3
:101C2000209582238C93888182230AC0623051F4EC
:101C3000F8948C91322F309583238C938881822B5A
:101C4000888304C0F8948C91822B8C939FBFDF9182
:101C5000CF9108950F931F93CF93DF931F92CDB72A
:101C6000DEB787FF0FC08F7741F0813041F08230BF
:101C700041F0833039F08FEF05C085E003C082E08A
:101C800001C084E0282F30E0F901E659FD4E84912F
:101C9000F901E059FD4E1491F901EA58FD4E049105
:101CA0000023D1F0882319F0698367DF6981E02F71
:101CB000F0E0EE0FFF1FE458FD4EA591B4919FB7E1
:101CC000611105C0F8948C911095812303C0F8949C
:101CD0008C91812B8C939FBF0F90DF91CF911F919F
:101CE0000F9108950024552704C0080E591F880F2E
:101CF000991F009729F076956795B8F37105B9F7A4
:0A1D0000802D952F0895F894FFCF71
:101D0A00010000000001000200033200019E00658C
:0A1D1A00042F0CF50F05020403006E
:00000001FF
